{
    "contractName": "DonateFunds",
    "abi": [
        {
            "inputs": [],
            "stateMutability": "nonpayable",
            "type": "constructor"
        },
        {
            "anonymous": false,
            "inputs": [
                {
                    "indexed": false,
                    "internalType": "address",
                    "name": "_recipient_account",
                    "type": "address"
                },
                {
                    "indexed": false,
                    "internalType": "uint256",
                    "name": "_value",
                    "type": "uint256"
                }
            ],
            "name": "DonationMade",
            "type": "event"
        },
        {
            "anonymous": false,
            "inputs": [
                {
                    "indexed": true,
                    "internalType": "address",
                    "name": "_donor",
                    "type": "address"
                },
                {
                    "indexed": false,
                    "internalType": "uint256",
                    "name": "_value",
                    "type": "uint256"
                }
            ],
            "name": "DonationReceived",
            "type": "event"
        },
        {
            "inputs": [],
            "name": "donateToGeneralWallet",
            "outputs": [],
            "stateMutability": "payable",
            "type": "function",
            "payable": true
        },
        {
            "inputs": [],
            "name": "donateToSpecificCause",
            "outputs": [],
            "stateMutability": "payable",
            "type": "function",
            "payable": true
        },
        {
            "inputs": [],
            "name": "addCharityAddress",
            "outputs": [],
            "stateMutability": "nonpayable",
            "type": "function"
        },
        {
            "inputs": [],
            "name": "removeCharityAddress",
            "outputs": [],
            "stateMutability": "nonpayable",
            "type": "function"
        },
        {
            "inputs": [],
            "name": "getTotalDonations",
            "outputs": [
                {
                    "internalType": "uint256",
                    "name": "",
                    "type": "uint256"
                }
            ],
            "stateMutability": "view",
            "type": "function",
            "constant": true
        },
        {
            "inputs": [
                {
                    "internalType": "address payable",
                    "name": "recipientAddress",
                    "type": "address"
                },
                {
                    "internalType": "uint256",
                    "name": "donationAmount",
                    "type": "uint256"
                }
            ],
            "name": "payOutDonations",
            "outputs": [],
            "stateMutability": "payable",
            "type": "function",
            "payable": true
        }
    ],
    "bytecode": "0x608060405234801561001057600080fd5b5033600160006101000a81548173ffffffffffffffffffffffffffffffffffffffff021916908373ffffffffffffffffffffffffffffffffffffffff16021790555060008081905550600060028190555061079e806100706000396000f3fe608060405260043610610072576000357c010000000000000000000000000000000000000000000000000000000090048063120cdb9414610077578063215b89a5146100815780633e4b8b9b1461008b57806366252b16146100a7578063777c658f146100be578063cfddb295146100e9575b600080fd5b61007f610100565b005b61008961026d565b005b6100a560048036038101906100a0919061044c565b61026f565b005b3480156100b357600080fd5b506100bc6103a6565b005b3480156100ca57600080fd5b506100d36103a8565b6040516100e0919061049b565b60405180910390f35b3480156100f557600080fd5b506100fe6103b1565b005b60003411610143576040517f08c379a000000000000000000000000000000000000000000000000000000000815260040161013a90610539565b60405180910390fd5b6000349050600160009054906101000a900473ffffffffffffffffffffffffffffffffffffffff1673ffffffffffffffffffffffffffffffffffffffff166108fc829081150290604051600060405180830381858888f193505050501580156101b0573d6000803e3d6000fd5b503373ffffffffffffffffffffffffffffffffffffffff167f264f630d9efa0d07053a31163641d9fcc0adafc9d9e76f1c37c2ce3a558d2c52826040516101f7919061049b565b60405180910390a2806000808282546102109190610588565b9250508190555060025481111561026a578060028190555033600360006101000a81548173ffffffffffffffffffffffffffffffffffffffff021916908373ffffffffffffffffffffffffffffffffffffffff1602179055505b50565b565b600034116102b2576040517f08c379a00000000000000000000000000000000000000000000000000000000081526004016102a99061062e565b60405180910390fd5b818073ffffffffffffffffffffffffffffffffffffffff163373ffffffffffffffffffffffffffffffffffffffff1603610321576040517f08c379a0000000000000000000000000000000000000000000000000000000008152600401610318906106c0565b60405180910390fd5b8273ffffffffffffffffffffffffffffffffffffffff166108fc839081150290604051600060405180830381858888f19350505050158015610367573d6000803e3d6000fd5b507faa13962bc79c7a0bc42cb8169b1705f0a6b55cc404ffb8a589d771ca78675978838360405161039992919061073f565b60405180910390a1505050565b565b60008054905090565b565b600080fd5b600073ffffffffffffffffffffffffffffffffffffffff82169050919050565b60006103e3826103b8565b9050919050565b6103f3816103d8565b81146103fe57600080fd5b50565b600081359050610410816103ea565b92915050565b6000819050919050565b61042981610416565b811461043457600080fd5b50565b60008135905061044681610420565b92915050565b60008060408385031215610463576104626103b3565b5b600061047185828601610401565b925050602061048285828601610437565b9150509250929050565b61049581610416565b82525050565b60006020820190506104b0600083018461048c565b92915050565b600082825260208201905092915050565b7f616d6f756e7420746f20646f6e6174652068617320746f20626520677265617460008201527f6572207468616e20300000000000000000000000000000000000000000000000602082015250565b60006105236029836104b6565b915061052e826104c7565b604082019050919050565b6000602082019050818103600083015261055281610516565b9050919050565b7f4e487b7100000000000000000000000000000000000000000000000000000000600052601160045260246000fd5b600061059382610416565b915061059e83610416565b92508282019050808211156105b6576105b5610559565b5b92915050565b7f616d6f756e7420746f2073656e642068617320746f206265206772656174657260008201527f207468616e203000000000000000000000000000000000000000000000000000602082015250565b60006106186027836104b6565b9150610623826105bc565b604082019050919050565b600060208201905081810360008301526106478161060b565b9050919050565b7f73656e64657220616464726573732063616e6e6f74206265207265636970696560008201527f6e74206164647265737300000000000000000000000000000000000000000000602082015250565b60006106aa602a836104b6565b91506106b58261064e565b604082019050919050565b600060208201905081810360008301526106d98161069d565b9050919050565b6000819050919050565b60006107056107006106fb846103b8565b6106e0565b6103b8565b9050919050565b6000610717826106ea565b9050919050565b60006107298261070c565b9050919050565b6107398161071e565b82525050565b60006040820190506107546000830185610730565b610761602083018461048c565b939250505056fea26469706673582212202d10ab7356e33389dd52d678580bcbb64d6152d50bf32b2741fdd3716772e4ea64736f6c63430008120033",
    "immutableReferences": {},
    "source": "// SPDX-License-Identifier: MIT\r\npragma solidity >= 0.7.0 <0.9.0;\r\n\r\ncontract DonateFunds {\r\n    uint256 totalDonationsAmount;\r\n    address payable owner;\r\n    uint256 highestDonation;\r\n    address payable  highestDonor;\r\n    address payable[] charities;\r\n\r\n    constructor(){\r\n        owner = payable (msg.sender);\r\n        totalDonationsAmount = 0;\r\n        highestDonation = 0;\r\n\r\n    }\r\n\r\n    modifier restrictedAccessToOwner (){\r\n        require(msg.sender == owner, 'Only owner can call this method');\r\n        _;\r\n    }\r\n\r\n    modifier validateRecipient (address payable recipientAddress){\r\n        require(msg.sender != recipientAddress,'sender address cannot be recipient address');\r\n        _;\r\n    }\r\n\r\n    modifier validateAmountSent (){\r\n        require( msg.value > 0, 'amount to send has to be greater than 0');\r\n        _;\r\n    }\r\n\r\n\r\n    modifier validateAmountDonated (){\r\n        require( msg.value > 0, 'amount to donate has to be greater than 0');\r\n        _;\r\n    }\r\n\r\n\r\n    event DonationReceived(\r\n        address indexed _donor,\r\n        uint256 _value\r\n    );\r\n\r\n    event DonationMade (\r\n        address _recipient_account,\r\n        uint256 _value\r\n    );\r\n\r\n    function donateToGeneralWallet() public validateAmountDonated() payable {\r\n        uint256 donationAmount = msg.value;\r\n        owner.transfer(donationAmount); //can contract hold funds..\r\n\r\n        emit DonationReceived(msg.sender, donationAmount);\r\n\r\n        totalDonationsAmount += donationAmount;\r\n        if(donationAmount > highestDonation){\r\n            highestDonation = donationAmount;\r\n            highestDonor = payable(msg.sender);\r\n        }\r\n    }\r\n\r\n    function donateToSpecificCause() public payable {\r\n\r\n    }\r\n\r\n    function addCharityAddress() public {\r\n\r\n    }\r\n\r\n    function removeCharityAddress() public {\r\n        \r\n    }\r\n\r\n    function getTotalDonations() view public returns(uint256){\r\n        return totalDonationsAmount;\r\n    }\r\n\r\n    function payOutDonations(address payable recipientAddress, uint256 donationAmount) public validateAmountSent() validateRecipient(recipientAddress) payable {\r\n        recipientAddress.transfer(donationAmount);\r\n        emit DonationMade(recipientAddress, donationAmount);\r\n    }\r\n\r\n}\r\n\r\n/* \r\n    : pass recipient address from cast_votes.sol\r\n*/",
    "sourcePath": "C:\\Users\\DELL\\code\\nodejs\\lifeonland\\contracts\\donations.sol",
    "compiler": {
        "name": "solc",
        "version": "0.8.18+commit.87f61d96.Emscripten.clang"
    },
    "schemaVersion": "3.4.12",
    "updatedAt": "2023-03-07T22:44:11.578Z",
    "networkType": "ethereum",
    "devdoc": {
        "kind": "dev",
        "methods": {},
        "version": 1
    },
    "userdoc": {
        "kind": "user",
        "methods": {},
        "version": 1
    }
}