{
  "contractName": "CastVotes",
  "abi": [
    {
      "inputs": [],
      "stateMutability": "nonpayable",
      "type": "constructor"
    },
    {
      "anonymous": false,
      "inputs": [
        {
          "indexed": false,
          "internalType": "bool",
          "name": "success",
          "type": "bool"
        },
        {
          "components": [
            {
              "internalType": "bytes32",
              "name": "name",
              "type": "bytes32"
            },
            {
              "internalType": "uint256",
              "name": "voteCount",
              "type": "uint256"
            },
            {
              "internalType": "address payable",
              "name": "recipient_address",
              "type": "address"
            }
          ],
          "indexed": false,
          "internalType": "struct CastVotes.proposed_recipient[]",
          "name": "proposals",
          "type": "tuple[]"
        }
      ],
      "name": "proposalsAdded",
      "type": "event"
    },
    {
      "inputs": [],
      "name": "chairperson",
      "outputs": [
        {
          "internalType": "address",
          "name": "",
          "type": "address"
        }
      ],
      "stateMutability": "view",
      "type": "function",
      "constant": true
    },
    {
      "inputs": [
        {
          "internalType": "uint256",
          "name": "",
          "type": "uint256"
        }
      ],
      "name": "proposals",
      "outputs": [
        {
          "internalType": "bytes32",
          "name": "name",
          "type": "bytes32"
        },
        {
          "internalType": "uint256",
          "name": "voteCount",
          "type": "uint256"
        },
        {
          "internalType": "address payable",
          "name": "recipient_address",
          "type": "address"
        }
      ],
      "stateMutability": "view",
      "type": "function",
      "constant": true
    },
    {
      "inputs": [
        {
          "internalType": "address",
          "name": "voter",
          "type": "address"
        }
      ],
      "name": "giveVotingRight",
      "outputs": [],
      "stateMutability": "nonpayable",
      "type": "function"
    },
    {
      "inputs": [
        {
          "components": [
            {
              "internalType": "bytes32",
              "name": "name",
              "type": "bytes32"
            },
            {
              "internalType": "uint256",
              "name": "voteCount",
              "type": "uint256"
            },
            {
              "internalType": "address payable",
              "name": "recipient_address",
              "type": "address"
            }
          ],
          "internalType": "struct CastVotes.proposed_recipient[]",
          "name": "proposals_Structs",
          "type": "tuple[]"
        }
      ],
      "name": "addProposals",
      "outputs": [],
      "stateMutability": "nonpayable",
      "type": "function"
    },
    {
      "inputs": [],
      "name": "getArrayofProposals",
      "outputs": [
        {
          "components": [
            {
              "internalType": "bytes32",
              "name": "name",
              "type": "bytes32"
            },
            {
              "internalType": "uint256",
              "name": "voteCount",
              "type": "uint256"
            },
            {
              "internalType": "address payable",
              "name": "recipient_address",
              "type": "address"
            }
          ],
          "internalType": "struct CastVotes.proposed_recipient[]",
          "name": "",
          "type": "tuple[]"
        }
      ],
      "stateMutability": "view",
      "type": "function",
      "constant": true
    },
    {
      "inputs": [
        {
          "internalType": "uint256",
          "name": "proposal",
          "type": "uint256"
        }
      ],
      "name": "vote",
      "outputs": [],
      "stateMutability": "nonpayable",
      "type": "function"
    },
    {
      "inputs": [],
      "name": "winningProposal",
      "outputs": [
        {
          "internalType": "uint256",
          "name": "winningProposal_",
          "type": "uint256"
        }
      ],
      "stateMutability": "view",
      "type": "function",
      "constant": true
    },
    {
      "inputs": [],
      "name": "winnerName",
      "outputs": [
        {
          "internalType": "bytes32",
          "name": "winnerName_",
          "type": "bytes32"
        }
      ],
      "stateMutability": "view",
      "type": "function",
      "constant": true
    },
    {
      "inputs": [],
      "name": "winnerAddress",
      "outputs": [
        {
          "internalType": "address",
          "name": "winnerAddress_",
          "type": "address"
        }
      ],
      "stateMutability": "view",
      "type": "function",
      "constant": true
    }
  ],
  "bytecode": "0x608060405234801561001057600080fd5b50336000806101000a81548173ffffffffffffffffffffffffffffffffffffffff021916908373ffffffffffffffffffffffffffffffffffffffff16021790555061132f806100606000396000f3fe608060405234801561001057600080fd5b50600436106100b0576000357c0100000000000000000000000000000000000000000000000000000000900480639d95d37a116100835780639d95d37a1461013f578063e2ba53f01461015d578063ed0df0fd1461017b578063ed7a4e0b14610197578063fe88a993146101b5576100b0565b80630121b93f146100b5578063013cf08b146100d15780632e4176cf14610103578063609ff1bd14610121575b600080fd5b6100cf60048036038101906100ca91906108be565b6101d1565b005b6100eb60048036038101906100e691906108be565b6102d7565b6040516100fa93929190610954565b60405180910390f35b61010b610331565b60405161011891906109ac565b60405180910390f35b610129610355565b60405161013691906109c7565b60405180910390f35b6101476103dd565b6040516101549190610b00565b60405180910390f35b6101656104a6565b6040516101729190610b22565b60405180910390f35b61019560048036038101906101909190610d57565b6104da565b005b61019f610669565b6040516101ac91906109ac565b60405180910390f35b6101cf60048036038101906101ca9190610dcc565b6106bd565b005b6000600160003373ffffffffffffffffffffffffffffffffffffffff1673ffffffffffffffffffffffffffffffffffffffff1681526020019081526020016000209050600081600201540361025b576040517f08c379a000000000000000000000000000000000000000000000000000000000815260040161025290610e56565b60405180910390fd5b8060000160009054906101000a900460ff16156102ad576040517f08c379a00000000000000000000000000000000000000000000000000000000081526004016102a490610ec2565b60405180910390fd5b60018160000160006101000a81548160ff0219169083151502179055508181600101819055505050565b600281815481106102e757600080fd5b90600052602060002090600302016000915090508060000154908060010154908060020160009054906101000a900473ffffffffffffffffffffffffffffffffffffffff16905083565b60008054906101000a900473ffffffffffffffffffffffffffffffffffffffff1681565b6000806000905060005b6002805490508110156103d857816002828154811061038157610380610ee2565b5b90600052602060002090600302016001015411156103c557600281815481106103ad576103ac610ee2565b5b90600052602060002090600302016001015491508092505b80806103d090610f40565b91505061035f565b505090565b60606002805480602002602001604051908101604052809291908181526020016000905b8282101561049d578382906000526020600020906003020160405180606001604052908160008201548152602001600182015481526020016002820160009054906101000a900473ffffffffffffffffffffffffffffffffffffffff1673ffffffffffffffffffffffffffffffffffffffff1673ffffffffffffffffffffffffffffffffffffffff168152505081526020019060010190610401565b50505050905090565b600060026104b2610355565b815481106104c3576104c2610ee2565b5b906000526020600020906003020160000154905090565b3373ffffffffffffffffffffffffffffffffffffffff1660008054906101000a900473ffffffffffffffffffffffffffffffffffffffff1673ffffffffffffffffffffffffffffffffffffffff1614610568576040517f08c379a000000000000000000000000000000000000000000000000000000000815260040161055f90610ffa565b60405180910390fd5b60005b815181101561062a57600282828151811061058957610588610ee2565b5b60200260200101519080600181540180825580915050600190039060005260206000209060030201600090919091909150600082015181600001556020820151816001015560408201518160020160006101000a81548173ffffffffffffffffffffffffffffffffffffffff021916908373ffffffffffffffffffffffffffffffffffffffff1602179055505050808061062290610f40565b91505061056b565b507f39e139ae93c3ec1b108eae93f0e45f2783360c0af5c2464314880d9126a7a50c6001600260405161065e9291906111cb565b60405180910390a150565b60006002610675610355565b8154811061068657610685610ee2565b5b906000526020600020906003020160020160009054906101000a900473ffffffffffffffffffffffffffffffffffffffff16905090565b60008054906101000a900473ffffffffffffffffffffffffffffffffffffffff1673ffffffffffffffffffffffffffffffffffffffff163373ffffffffffffffffffffffffffffffffffffffff161461074b576040517f08c379a00000000000000000000000000000000000000000000000000000000081526004016107429061126d565b60405180910390fd5b600160008273ffffffffffffffffffffffffffffffffffffffff1673ffffffffffffffffffffffffffffffffffffffff16815260200190815260200160002060000160009054906101000a900460ff16156107db576040517f08c379a00000000000000000000000000000000000000000000000000000000081526004016107d2906112d9565b60405180910390fd5b6000600160008373ffffffffffffffffffffffffffffffffffffffff1673ffffffffffffffffffffffffffffffffffffffff168152602001908152602001600020600201541461082a57600080fd5b60018060008373ffffffffffffffffffffffffffffffffffffffff1673ffffffffffffffffffffffffffffffffffffffff1681526020019081526020016000206002018190555050565b6000604051905090565b600080fd5b600080fd5b6000819050919050565b61089b81610888565b81146108a657600080fd5b50565b6000813590506108b881610892565b92915050565b6000602082840312156108d4576108d361087e565b5b60006108e2848285016108a9565b91505092915050565b6000819050919050565b6108fe816108eb565b82525050565b61090d81610888565b82525050565b600073ffffffffffffffffffffffffffffffffffffffff82169050919050565b600061093e82610913565b9050919050565b61094e81610933565b82525050565b600060608201905061096960008301866108f5565b6109766020830185610904565b6109836040830184610945565b949350505050565b600061099682610913565b9050919050565b6109a68161098b565b82525050565b60006020820190506109c1600083018461099d565b92915050565b60006020820190506109dc6000830184610904565b92915050565b600081519050919050565b600082825260208201905092915050565b6000819050602082019050919050565b610a17816108eb565b82525050565b610a2681610888565b82525050565b610a3581610933565b82525050565b606082016000820151610a516000850182610a0e565b506020820151610a646020850182610a1d565b506040820151610a776040850182610a2c565b50505050565b6000610a898383610a3b565b60608301905092915050565b6000602082019050919050565b6000610aad826109e2565b610ab781856109ed565b9350610ac2836109fe565b8060005b83811015610af3578151610ada8882610a7d565b9750610ae583610a95565b925050600181019050610ac6565b5085935050505092915050565b60006020820190508181036000830152610b1a8184610aa2565b905092915050565b6000602082019050610b3760008301846108f5565b92915050565b600080fd5b6000601f19601f8301169050919050565b7f4e487b7100000000000000000000000000000000000000000000000000000000600052604160045260246000fd5b610b8b82610b42565b810181811067ffffffffffffffff82111715610baa57610ba9610b53565b5b80604052505050565b6000610bbd610874565b9050610bc98282610b82565b919050565b600067ffffffffffffffff821115610be957610be8610b53565b5b602082029050602081019050919050565b600080fd5b600080fd5b610c0d816108eb565b8114610c1857600080fd5b50565b600081359050610c2a81610c04565b92915050565b610c3981610933565b8114610c4457600080fd5b50565b600081359050610c5681610c30565b92915050565b600060608284031215610c7257610c71610bff565b5b610c7c6060610bb3565b90506000610c8c84828501610c1b565b6000830152506020610ca0848285016108a9565b6020830152506040610cb484828501610c47565b60408301525092915050565b6000610cd3610cce84610bce565b610bb3565b90508083825260208201905060608402830185811115610cf657610cf5610bfa565b5b835b81811015610d1f5780610d0b8882610c5c565b845260208401935050606081019050610cf8565b5050509392505050565b600082601f830112610d3e57610d3d610b3d565b5b8135610d4e848260208601610cc0565b91505092915050565b600060208284031215610d6d57610d6c61087e565b5b600082013567ffffffffffffffff811115610d8b57610d8a610883565b5b610d9784828501610d29565b91505092915050565b610da98161098b565b8114610db457600080fd5b50565b600081359050610dc681610da0565b92915050565b600060208284031215610de257610de161087e565b5b6000610df084828501610db7565b91505092915050565b600082825260208201905092915050565b7f53656e64657220686173206e6f20726967687420746f20766f74650000000000600082015250565b6000610e40601b83610df9565b9150610e4b82610e0a565b602082019050919050565b60006020820190508181036000830152610e6f81610e33565b9050919050565b7f416c726561647920766f74656400000000000000000000000000000000000000600082015250565b6000610eac600d83610df9565b9150610eb782610e76565b602082019050919050565b60006020820190508181036000830152610edb81610e9f565b9050919050565b7f4e487b7100000000000000000000000000000000000000000000000000000000600052603260045260246000fd5b7f4e487b7100000000000000000000000000000000000000000000000000000000600052601160045260246000fd5b6000610f4b82610888565b91507fffffffffffffffffffffffffffffffffffffffffffffffffffffffffffffffff8203610f7d57610f7c610f11565b5b600182019050919050565b7f66756e6374696f6e2063616e206f6e6c792062652063616c6c6564206279206360008201527f68616972706572736f6e00000000000000000000000000000000000000000000602082015250565b6000610fe4602a83610df9565b9150610fef82610f88565b604082019050919050565b6000602082019050818103600083015261101381610fd7565b9050919050565b60008115159050919050565b61102f8161101a565b82525050565b600081549050919050565b60008190508160005260206000209050919050565b6000600182049050919050565b6000819050919050565b600061107f61107a83611055565b611062565b9050919050565b6000819050919050565b60006110a361109e83611055565b611086565b9050919050565b600073ffffffffffffffffffffffffffffffffffffffff82169050919050565b60006110dd6110d883611055565b6110aa565b9050919050565b6060820160008083015490506110f98161106c565b6111066000860182610a0e565b506001830154905061111781611090565b6111246020860182610a1d565b5060028301549050611135816110ca565b6111426040860182610a2c565b5050505050565b600061115583836110e4565b60608301905092915050565b6000600382019050919050565b600061117982611035565b61118381856109ed565b935061118e83611040565b8060005b838110156111be57816111a58882611149565b97506111b083611161565b925050600181019050611192565b5085935050505092915050565b60006040820190506111e06000830185611026565b81810360208301526111f2818461116e565b90509392505050565b7f4f6e6c79206368616972706572736f6e2063616e20676976652072696768742060008201527f746f20766f746500000000000000000000000000000000000000000000000000602082015250565b6000611257602783610df9565b9150611262826111fb565b604082019050919050565b600060208201905081810360008301526112868161124a565b9050919050565b7f566f74657220616c7265616479206361737420612062616c6c6f740000000000600082015250565b60006112c3601b83610df9565b91506112ce8261128d565b602082019050919050565b600060208201905081810360008301526112f2816112b6565b905091905056fea26469706673582212206db9ea037eec46a2da497fc157f7f92511392333f423bc4f0aab59346fea660f64736f6c63430008120033",
  "immutableReferences": {},
  "source": "// SPDX-License-Identifier: MIT\r\npragma solidity  >=0.7.0 <0.9.0;\r\n\r\ncontract CastVotes {\r\n    \r\n    struct Voter {\r\n        bool voted;\r\n        uint vote;\r\n        uint weight; //index of the proposal voter supports\r\n    }\r\n\r\n    struct  proposed_recipient {\r\n        bytes32 name;\r\n        uint voteCount;\r\n        address payable recipient_address;\r\n    }\r\n    \r\n    address public chairperson;\r\n\r\n    mapping (address => Voter) voters;\r\n\r\n    //array of proposals\r\n    proposed_recipient[] public proposals;\r\n\r\n     modifier limitAccessToOwner(){\r\n        require(chairperson == msg.sender,'function can only be called by chairperson');\r\n        _;\r\n    }\r\n\r\n    event proposalsAdded(\r\n        bool success,\r\n        proposed_recipient[] proposals\r\n\r\n    );\r\n\r\n\r\n    //creating ballot with the recipients to receive the funds\r\n    constructor() {\r\n        chairperson = msg.sender;       \r\n    }\r\n\r\n    //giving voters right to vote. chairperson currently has the power to select voters.\r\n    // This can be changed to something that uses a multisig wallet\r\n\r\n    function giveVotingRight(address voter)  external {\r\n        require(\r\n            msg.sender == chairperson,\r\n            'Only chairperson can give right to vote'\r\n        );\r\n        require(\r\n            !voters[voter].voted,\r\n            'Voter already cast a ballot'\r\n        );\r\n        require(voters[voter].weight == 0);\r\n        voters[voter].weight = 1;\r\n\r\n    }\r\n\r\n    function addProposals(proposed_recipient[] memory proposals_Structs) public limitAccessToOwner() {\r\n\r\n        for(uint i=0; i<proposals_Structs.length; i++){\r\n            proposals.push(      \r\n                proposals_Structs[i]          \r\n            );\r\n        }\r\n\r\n        emit proposalsAdded(true, proposals);\r\n    }\r\n\r\n    function getArrayofProposals() public view returns( proposed_recipient[] memory){\r\n        return proposals;\r\n    }\r\n\r\n    function vote(uint proposal) external {\r\n        Voter storage sender = voters[msg.sender];\r\n        require(sender.weight != 0, \"Sender has no right to vote\");\r\n        require(!sender.voted, \"Already voted\");\r\n        sender.voted = true;\r\n        sender.vote = proposal;\r\n    }\r\n\r\n    function winningProposal () public view returns (uint winningProposal_){\r\n        uint winningVoteCounter = 0;\r\n        for(uint p = 0; p<proposals.length; p++){\r\n            if(proposals[p].voteCount > winningVoteCounter){\r\n                winningVoteCounter = proposals[p].voteCount;\r\n                winningProposal_ = p;\r\n            }\r\n        }\r\n    }\r\n\r\n    function winnerName() external view returns (bytes32 winnerName_){\r\n        winnerName_ = proposals[winningProposal()].name;\r\n\r\n    }\r\n\r\n    function winnerAddress() external view returns (address winnerAddress_){\r\n        winnerAddress_=  proposals[winningProposal()].recipient_address;\r\n        \r\n    }\r\n\r\n}\r\n",
  "sourcePath": "C:\\Users\\DELL\\code\\nodejs\\lifeonland\\contracts\\cast_votes.sol",
  "compiler": {
    "name": "solc",
    "version": "0.8.18+commit.87f61d96.Emscripten.clang"
  },
  "schemaVersion": "3.4.12",
  "updatedAt": "2023-03-07T22:44:11.567Z",
  "networkType": "ethereum",
  "devdoc": {
    "kind": "dev",
    "methods": {},
    "version": 1
  },
  "userdoc": {
    "kind": "user",
    "methods": {},
    "version": 1
  }
}